:100000000C9451010C9482010C9482010C94820195
:100010000C9482010C9482010C9482010C94820154
:100020000C9482010C9482010C9482010C94820144
:100030000C9482010C9482010C9482010C94820134
:100040000C9482010C9482010C9482010C94820124
:100050000C9482010C9482010C9482010C943C0655
:100060000C9482010C9482010C9482010C94820104
:100070000C9482010C9482010C9482010C948201F4
:100080000C9482010C9482010C9482010C948201E4
:100090000C9482010C9482010C9482010C948201D4
:1000A0000C9482010C9482010C9482010C948201C4
:1000B0000C9482010C9482010C9482010C948201B4
:1000C0000C9482010C9482010C9482010C948201A4
:1000D0000C9482010C9482010C9482010C94820194
:1000E0000C9482010C94E7010C9436030C94D10219
:1000F0000C94A6020C94D5010C94BD020C9422031E
:100100000C94B0010C94F3080C94F5020C94BD010E
:100110000C94C7010C94DD010C94AE020C94E10226
:100120000C94CB010C94CF010C94E3010C94A80126
:100130000C94E2010C9440030C94B4030C94E2037D
:100140000C94D9020C94FF020C94A2010C940E039F
:100150000C948B050C94AC010C94E1030C942C03CF
:100160000C94B3020C94C7020C94B4010C94D90102
:100170000C94EB020C94C1010C9418030C94B7017D
:1001800000002100240027002A002D003000330049
:1001900001010000040107010A01000022002500FE
:1001A00028002B002E003100340002010000050160
:1001B00008010B01000020002300260029002C006C
:1001C0002F003200000100000301060109010505AE
:1001D0000505070508080808020202020A0A0808BD
:1001E00004040404010101010101010103030303EB
:1001F00003030303040707070C0C0C0C0C0C0C0C7A
:100200000202020206060606060606060B0B0B0B8A
:100210000B0B0B0B010210202008081020401020AF
:1002200040800201020108040201010204081020BA
:1002300040808040201008040201800402018040B8
:100240002010080402010804020101020408102021
:100250004080010204081020408000000A0B0209BF
:100260000C0D0E0807030401000000000000000050
:10027000000000000000000000000000000000007E
:10028000000000000000121110000000000000003B
:10029000000000000000000000000000000000005E
:1002A000F30811241FBECFEFD1E2DEBFCDBF00E0C7
:1002B0000CBF12E0A0E0B2E0E2EFF6E100E00BBF1D
:1002C00002C007900D92A83EB107D9F723E0A8EE2F
:1002D000B2E001C01D92A930B207E1F711E0C1E51B
:1002E000D1E000E006C021970109802FFE010E94A5
:1002F0006F0BC035D10780E00807A9F70E9486067A
:100300000C94770B0C9400008150823108F05AC095
:10031000E82FF0E08827E057FE4F8F4F0C946F0BCB
:10032000B001B401A201A801AC01E201B701BD0115
:10033000C101C701CB01CF01D501D901E201DD0126
:10034000E301E701809180008F778093800008951A
:10035000809180008F7DF9CF80918000877FF5CFDD
:1003600084B58F7784BD089584B58F7DFBCF809150
:10037000B0008F778093B00008958091B0008F7D9A
:10038000F9CF809190008F778093900008958091AD
:1003900090008F7DF9CF80919000877FF5CF80917D
:1003A000A0008F778093A00008958091A0008F7D9A
:1003B000F9CF8091A000877FF5CF809120018F77C2
:1003C000809320010895809120018F7DF9CF809145
:1003D0002001877FF5CFCF93DF93282F30E0F901FD
:1003E000E65AFD4F8491F901EC5EFD4FD491F9017D
:1003F000E253FE4FC491CC23A1F081110E948401ED
:10040000EC2FF0E0EE0FFF1FEC54FE4FA591B491DE
:10041000EC91ED2381E090E009F480E0DF91CF9151
:10042000089580E090E0FACF1F93CF93DF93282FB9
:1004300030E0F901E65AFD4F8491F901EC5EFD4F81
:10044000D491F901E253FE4FC491CC23A9F0162FA9
:1004500081110E948401EC2FF0E0EE0FFF1FE656A1
:10046000FE4FA591B4918FB7F894EC91111108C08B
:10047000D095DE23DC938FBFDF91CF911F9108953C
:10048000DE2BF8CFCF93DF9390E0FC01EC5EFD4FC5
:10049000249182539E4FFC0184918823D1F090E0F7
:1004A000880F991FFC01E058FE4FA591B491FC0103
:1004B000E656FE4FC591D491623071F49FB7F8941F
:1004C0003C91822F809583238C93E8812E2B288367
:1004D0009FBFDF91CF9108958FB7F894EC912E2BA9
:1004E0002C938FBFF6CF1F93CF93DF93182FEB0181
:1004F00061E00E944202209739F460E0812FDF9191
:10050000CF911F910C941402E12FF0E0E65AFD4FB9
:10051000E491E150E23108F0B3C0F0E08827EC56F6
:10052000FD4F8F4F0C946F0BA602AE02B302BD02BB
:10053000C7024003D102D902E102EB02F502FF0239
:100540000E031803400322032C03360384B580688E
:1005500084BDC7BDDF91CF911F91089584B580629E
:1005600084BDC8BDF7CF80918000806880938000F3
:10057000D0938900C0938800EDCF80918000806285
:1005800080938000D0938B00C0938A00E3CF80914A
:100590008000886080938000D0938D00C0938C0091
:1005A000D9CF8091B00080688093B000C093B30031
:1005B000D1CF8091B00080628093B000C093B4002E
:1005C000C9CF80919000806880939000D09399006B
:1005D000C0939800BFCF809190008062809390007C
:1005E000D0939B00C0939A00B5CF80919000886013
:1005F00080939000D0939D00C0939C00ABCF8091DE
:10060000A00080688093A0008091A0008F7B8093E1
:10061000A000D093A900C093A8009CCF8091A00017
:1006200080628093A000D093AB00C093AA0092CFC9
:100630008091A00088608093A000D093AD00C0930B
:10064000AC0088CF80912001806880932001D093F6
:100650002901C09328017ECF809120018062809380
:100660002001D0932B01C0932A0174CF80912001E7
:10067000886080932001D0932D01C0932C016ACF14
:10068000C038D1050CF439CF61E038CF90917B00B0
:10069000977F90937B008653806480937C00809149
:1006A0007A00806480937A0080917A0086FDFCCF86
:1006B000809178009091790008953FB7F8948091E7
:1006C000ED029091EE02A091EF02B091F00226B5FA
:1006D000A89B05C02F3F19F00196A11DB11D3FBF7A
:1006E000BA2FA92F982F8827BC01CD01620F711D49
:1006F000811D911D42E0660F771F881F991F4A9543
:10070000D1F708958F929F92AF92BF92CF92DF92CE
:10071000EF92FF924B015C010E945D036B017C0133
:100720000E945D036C197D098E099F09683E734024
:1007300081059105A8F321E0821A9108A108B1086A
:1007400088EEC80E83E0D81EE11CF11C81149104D0
:10075000A104B10429F7FF90EF90DF90CF90BF90F4
:10076000AF909F908F900895AF92BF92CF92DF92FB
:10077000EF92FF920F931F93CF93DF936C017B0156
:100780008B01040F151FEB015E01AE18BF08C017E7
:10079000D10759F06991D601ED91FC910190F0815A
:1007A000E02DC6011995892B79F7C501DF91CF910D
:1007B0001F910F91FF90EF90DF90CF90BF90AF907F
:1007C0000895089590E080E00895FC0101900020D4
:1007D000E9F73197AF01481B590BBC0181EF92E05B
:1007E0000C94B4038F929F92AF92BF920F931F937A
:1007F000CF93DF93CDB7DEB7A1970FB6F894DEBFE6
:100800000FBECDBF19A2423008F44AE08E010F5D41
:100810001F4F842E912CB12CA12CA50194010E9474
:100820004D0BE62FB901CA01EA30F4F4E05DD801BE
:10083000EE938D01232B242B252B79F790E080E07C
:10084000109719F0CD010E94E503A1960FB6F89418
:10085000DEBF0FBECDBFDF91CF911F910F91BF9033
:10086000AF909F908F900895E95CE1CF0C94E503E1
:10087000CF93DF93EC0160E08E810E94140261E06F
:100880008E810E94140260E08E810E9414028BE827
:1008900091E00197F1F7DF91CF910895CF92DF9228
:1008A000EF92FF920F931F93CF93DF936C017C0124
:1008B00087E0E80EF11CD0E0C0E0062F10E0B801A0
:1008C0000C2E02C0759567950A94E2F76170F701E6
:1008D00081917F010E9414022196C430D10579F7DD
:1008E000C601DF91CF911F910F91FF90EF90DF90A4
:1008F000CF900C943804CF92DF92EF92FF920F9337
:100900001F93CF93DF93EC01F62E642F8C810E940E
:1009100014028D818F3F19F060E00E9414020F2DA8
:1009200010E08F8584FF25C06E0187E0C80ED11CC2
:10093000F12CE12CB8010E2C02C0759567950A9434
:10094000E2F76170F60181916F010E941402FFEFDE
:10095000EF1AFF0A88E0E816F10461F7CE01DF9193
:10096000CF911F910F91FF90EF90DF90CF900C945B
:100970003804B80184E0759567958A95E1F7CE0152
:100980000E944E046F2DCE01DF91CF911F910F91E8
:10099000FF90EF90DF90CF900C944E0440E0682FD2
:1009A00081EF92E00C947B0481E00E94CE048BE303
:1009B0009FE10197F1F70895CF93DF93823029F4F7
:1009C0009091000398609093000380930403109229
:1009D000050380E48093060380E18093070380E5AC
:1009E0008093080361E08091F5020E9442028091A9
:1009F000F6028F3F19F061E00E94420261E08091AF
:100A0000F7020E944202C1EFD2E09E01215F324014
:100A10008091000384FD0BC084E090E021962817AC
:100A2000390744F461E08E810E944202EECF88E0F3
:100A300090E0F4CF8BE39DE00197F1F760E08091C7
:100A4000F5020E94140260E08091F7020E941402F5
:100A50008091F6028F3F19F060E00E9414028091AD
:100A6000000384FD34C063E081EF92E00E944E04F5
:100A7000CBE4D6E4CE010197F1F763E081EF92E099
:100A80000E944E042197F1F763E081EF92E00E940B
:100A90004E0483E592E00197F1F762E081EF92E086
:100AA0000E944E048091000380620E94CE0484E084
:100AB000809301038CE00E94CE040E94D40482E063
:100AC0008093020386E0DF91CF910C94CE04806284
:100AD0000E94CE048BE496E40197F1F78091000325
:100AE00080620E94CE0483E592E00197F1F7809145
:100AF000000380620E94CE04D5CF90910403891731
:100B000010F08FEF890FE82FF0E0EF50FD4F848950
:100B100080680C94CE0441E00E947B0481E090E068
:100B200008958F929F92AF92BF92CF92DF92EF92F1
:100B3000FF92CF93DF936B017C01AC019B010E947C
:100B4000480B882371F08CE092E0DF91CF91FF9009
:100B5000EF90DF90CF90BF90AF909F908F900C94CC
:100B6000E50346015701E894B7F82FEF3FEF4FE751
:100B70005FE7C501B4010E94480B81110DC02FEF42
:100B80003FEF4FE75FE7C501B4010E947E091816E9
:100B90001CF480E192E0D9CF2FEF3FEF4FE75FE405
:100BA000C701B6010E94D60A18161CF484E192E02F
:100BB000CCCF2FEF3FEF4FE75FECC701B6010E94AC
:100BC0007E0987FDF3CF20E030E0A901C701B6011F
:100BD0000E947E09D0E0C0E087FF0CC041E06DE2DA
:100BE00081EF92E00E947B04F7FAF094F7F8F0941A
:100BF000C1E0D0E02DEC3CEC4CE45DE3C701B60174
:100C00000E9412094B015C010E94F5096B017C01F5
:100C10000E94240A9B01AC01C501B4010E94110984
:100C20004B015C014AE0C701B6010E94F203C80F04
:100C3000D91F41E06EE281EF92E00E947B04219691
:100C400020E030E040E251E4C501B4010E94DB0A3B
:100C50000E94F50990E080E04AE00E94F2038C0FC8
:100C60009D1FDF91CF91FF90EF90DF90CF90BF90CD
:100C7000AF909F908F9008951F920F920FB60F9292
:100C800011242F933F938F939F93AF93BF938091A2
:100C9000E9029091EA02A091EB02B091EC0230914E
:100CA000E80223E0230F2D3758F50196A11DB11D51
:100CB0002093E8028093E9029093EA02A093EB026A
:100CC000B093EC028091ED029091EE02A091EF02C0
:100CD000B091F0020196A11DB11D8093ED02909399
:100CE000EE02A093EF02B093F002BF91AF919F91FB
:100CF0008F913F912F910F900FBE0F901F901895DD
:100D000026E8230F0296A11DB11DD2CF789484B599
:100D1000826084BD84B5816084BD85B5826085BDF7
:100D200085B5816085BD80916E00816080936E0085
:100D30001092810080918100826080938100809177
:100D40008100816080938100809180008160809328
:100D500080008091B10084608093B1008091B000E8
:100D600081608093B00080919100826080939100B7
:100D700080919100816080939100809190008160CA
:100D8000809390008091A10082608093A100809167
:100D9000A10081608093A1008091A0008160809378
:100DA000A000809121018260809321018091210126
:100DB00081608093210180912001816080932001D6
:100DC00080917A00846080937A0080917A008260BA
:100DD00080937A0080917A00816080937A0080917C
:100DE0007A00806880937A001092C10061E089E007
:100DF0000E94420261E08AE00E94420261E08BE0D0
:100E00000E94420262E08CE00E94420262E086E0C0
:100E10000E94420262E088E30E94420261E089E3AC
:100E20000E94420261E088E10E94420261E087E1A3
:100E30000E94420261E085E30E94420261E086E195
:100E40000E94420261E084E30E94420260E084E387
:100E50000E94140282E00E94DC0488E192E00E9479
:100E6000360470E060E089E00E94730270E060E0A8
:100E70008AE00E94730270E060E08BE00E947302DF
:100E800060E088E10E941402C0E0D0E087E30E94A5
:100E900046037C0186E00E94EB01892B09F08CC19E
:100EA0008CE00E94EB01019721F50E94D40480E0C0
:100EB0000E947D0588E292E00E94360481E00E9453
:100EC0007D0584E392E00E94360466EE70E089E0DE
:100ED0000E94730262E370E08AE00E94730268EC91
:100EE00070E08BE00E947302209781F20E94000064
:100EF000CDCF70E060E089E00E94730270E060E0B6
:100F00008AE00E94730270E060E08BE00E9473024E
:100F100088E30E94EB01019791F503E010E061E0A6
:100F200089E30E94140261E088E10E9414026AEFE2
:100F300070E080E090E00E94820360E089E30E941C
:100F4000140260E088E10E9414026AEF70E080E021
:100F500090E00E9482030150110909F70E94D40415
:100F600080E00E947D0583E492E00E94360481E0E7
:100F70000E947D0580E592E00E943604B5CF60E0D6
:100F800089E30E94140260E088E10E9414020E943A
:100F9000D40480E00E947D0587E592E00E9436043B
:100FA00086E30E9446038B3F91050CF0A0C061E0F0
:100FB00087E10E94140281E00E947D0587E692E0AD
:100FC0000E943604B701FF0C880B990B0E94260A79
:100FD00020E030EC4FE754E40E94830920E030E049
:100FE00048EC52E40E94DB0A6B017C016CED75E079
:100FF00080E090E00E9482030E94D40420E030E070
:10100000A901C701B6010E947E0918160CF479C027
:1010100060E085E30E94140260E086E10E94140211
:1010200080E00E947D0582E892E00E94360481E023
:101030000E947D058EE892E00E94360460ED77E024
:1010400080E090E00E94820360E085E30E94140249
:1010500060ED77E080E090E00E9482038DE30E94E3
:101060004603BC01990F880B990B0E94260A2AE0BF
:1010700038E240EA5BE30E94DB0A20E030E048EC23
:1010800052E40E94DB0A6B017C0120E030E048EC76
:1010900051E40E94D60A18160CF09EC061E084E369
:1010A0000E9414020E94D40480E00E947D058EEC10
:1010B00092E00E943604C701B6010E94910541E00A
:1010C0006FED81EF92E00E947B0489ED92E00E9437
:1010D000360481E00E947D058BED92E00E9436048B
:1010E00068EE73E080E090E00E948203FDCE60E055
:1010F00087E10E94140281E00E947D0584E792E06E
:101100005FCF20E030E040EA50E4C701B6010E9422
:101110007E0987FF2BC061E086E10E94140280E017
:101120000E947D058AE992E00E94360481E00E94D7
:101130007D0588EA92E00E943604C701B6010E944C
:1011400091056AEF70E080E090E00E94820360E029
:1011500086E10E9414026AEF70E080E090E00E9455
:10116000820361E085E30E94140268CF20E030E052
:1011700040E251E4C701B6010E947E0987FF17C013
:1011800061E086E10E94140280E00E947D0582EB0E
:1011900092E00E94360481E00E947D0582EC92E09C
:1011A0000E943604C701B6010E949105DACF60E0C3
:1011B00086E10E941402D5CF70E060E089E00E94D1
:1011C000730270E060E08AE00E94730270E060E009
:1011D0008BE00E94730242CF60E084E30E9414021D
:1011E0000E94D4047DCFE1EFF2E01382128284E00A
:1011F00092E09183808388E084838FEF858387E00A
:10120000868385E0878384E0808783E0818782E02E
:1012100082871386148615861686178681E00C94BD
:10122000DC045058BB27AA270E9429090C949C0A69
:101230000E948E0A38F00E94950A20F039F49F3FF0
:1012400019F426F40C948B0A0EF4E095E7FB0C9449
:10125000850AE92F0E94AD0A58F3BA17620773078F
:101260008407950720F079F4A6F50C94CF0A0EF4C4
:10127000E0950B2EBA2FA02D0B01B90190010C01A6
:10128000CA01A0011124FF27591B99F0593F50F4BE
:10129000503E68F11A16F040A22F232F342F442716
:1012A000585FF3CF469537952795A795F04053950E
:1012B000C9F77EF41F16BA0B620B730B840BBAF0DE
:1012C0009150A1F0FF0FBB1F661F771F881FC2F749
:1012D0000EC0BA0F621F731F841F48F4879577955D
:1012E0006795B795F7959E3F08F0B0CF9395880F17
:1012F00008F09927EE0F9795879508950E94610A47
:1013000008F481E008950E9497090C949C0A0E94B9
:10131000950A58F00E948E0A40F029F45F3F29F0A8
:101320000C94850A51110C94D00A0C948B0A0E94DB
:10133000AD0A68F39923B1F3552391F3951B550B2F
:10134000BB27AA2762177307840738F09F5F5F4F98
:10135000220F331F441FAA1FA9F335D00E2E3AF0D7
:10136000E0E832D091505040E695001CCAF72BD0EF
:10137000FE2F29D0660F771F881FBB1F2617370740
:101380004807AB07B0E809F0BB0B802DBF01FF2772
:1013900093585F4F3AF09E3F510578F00C94850AC0
:1013A0000C94D00A5F3FE4F3983ED4F3869577958A
:1013B0006795B795F7959F5FC9F7880F911D96952B
:1013C000879597F90895E1E0660F771F881FBB1F87
:1013D000621773078407BA0720F0621B730B840B34
:1013E000BA0BEE1F88F7E09508950E94B50A88F0C1
:1013F0009F5798F0B92F9927B751B0F0E1F0660FD9
:10140000771F881F991F1AF0BA95C9F714C0B13019
:1014100091F00E94CF0AB1E008950C94CF0A672F93
:10142000782F8827B85F39F0B93FCCF38695779548
:101430006795B395D9F73EF4909580957095619531
:101440007F4F8F4F9F4F0895E89409C097FB3EF45C
:1014500090958095709561957F4F8F4F9F4F992301
:10146000A9F0F92F96E9BB279395F695879577957F
:101470006795B795F111F8CFFAF4BB0F11F460FF3F
:101480001BC06F5F7F4F8F4F9F4F16C0882311F097
:1014900096E911C0772321F09EE8872F762F05C0AB
:1014A000662371F096E8862F70E060E02AF09A9546
:1014B000660F771F881FDAF7880F9695879597F93B
:1014C0000895990F0008550FAA0BE0E8FEEF1616D5
:1014D0001706E807F907C0F012161306E407F50728
:1014E00098F0621B730B840B950B39F40A2661F09C
:1014F000232B242B252B21F408950A2609F4A1403F
:10150000A6958FEF811D811D089597F99F6780E84B
:1015100070E060E008959FEF80EC089500240A9445
:101520001616170618060906089500240A941216BE
:101530001306140605060895092E0394000C11F4F1
:10154000882352F0BB0F40F4BF2B11F460FF04C09E
:101550006F5F7F4F8F4F9F4F089557FD9058440FF7
:10156000551F59F05F3F71F04795880F97FB991F02
:1015700061F09F3F79F087950895121613061406BF
:10158000551FF2CF4695F1DF08C01616170618064C
:10159000991FF1CF86957105610508940895E89427
:1015A000BB2766277727CB0197F908950E94610A28
:1015B00008F48FEF08950E94EE0A0C949C0A0E9492
:1015C0008E0A38F00E94950A20F0952311F00C94B1
:1015D000850A0C948B0A11240C94D00A0E94AD0A3F
:1015E00070F3959FC1F3950F50E0551F629FF00176
:1015F000729FBB27F00DB11D639FAA27F00DB11D8F
:10160000AA1F649F6627B00DA11D661F829F222717
:10161000B00DA11D621F739FB00DA11D621F839F9E
:10162000A00D611D221F749F3327A00D611D231F74
:10163000849F600D211D822F762F6A2F11249F57C2
:1016400050409AF0F1F088234AF0EE0FFF1FBB1FC5
:10165000661F771F881F91505040A9F79E3F510584
:1016600080F00C94850A0C94D00A5F3FE4F3983E16
:10167000D4F3869577956795B795F795E7959F5F2E
:10168000C1F7FE2B880F911D9695879597F90895C0
:101690000E94610A880B990B0895A1E21A2EAA1BD9
:1016A000BB1BFD010DC0AA1FBB1FEE1FFF1FA21712
:1016B000B307E407F50720F0A21BB30BE40BF50B0F
:1016C000661F771F881F991F1A9469F76095709598
:1016D000809590959B01AC01BD01CF010895EE0F5F
:1016E000FF1F881F8BBF0790F691E02D1994F89487
:0216F000FFCF2A
:1016F200000000008B05B403E203E1036E616E009B
:10170200696E66006F76660059616B697420536575
:101712007669796573693A004B6170692041636942
:101722006B202D004D6F746F722043616C69736D75
:10173200617A004B656D65722054616B696C69005A
:10174200446567696C21004D6F746F722043616C50
:10175200697369796F72004661726C6172204163CC
:10176200696B20004661726C6172204B6170616C22
:10177200690059616B6974204269747469004D6F24
:10178200746F72204475726475004B726974696B70
:101792003A2059616B697400436F6B20417A202DA6
:1017A200200055796172693A2059616B6974204150
:1017B2007A0044C3BCC59FC3BC6B202D2000536973
:1017C20063616B6C696B3A200043004B6C696D611D
:0817D200204163696C646900A9
:00000001FF
